:100000000EC028C027C026C025C024C023C022C0DF
:1000100021C020C01FC01EC01DC01CC01BC0112499
:100020001FBECFE5D2E0DEBFCDBF10E0A0E6B0E05E
:10003000E0E0FDE002C005900D92AC3CB107D9F7BD
:1000400020E0ACECB0E001C01D92A03EB207E1F7A9
:10005000D0D554C6D5CFC198B998C398BB9AC29A87
:10006000BA9AC09AB89A0895823039F4C398BB9A64
:10007000C29ABA9AC49ABC9A0895813009F4EBCF17
:100080000895823039F4C398BB98C29ABA9AC49A38
:10009000BC9A0895813041F4C198B998C398BB982F
:1000A000C29ABA9AC09AB89A0895C398BB98C2984F
:1000B00098E080E0869522E02A95F1F700C0C29A88
:1000C000B3998068C2989150A9F7C39892E09A9525
:1000D000F1F700C00895C398BB9A32E03A95F1F762
:1000E00000C0C29898E021E0382F322381F0C39AF3
:1000F000C29A32E03A95F1F700C0C298220F9150AF
:1001000099F7C39882E08A95F1F700C00895C398E3
:10011000EFCFC49A92E09A95F1F700C0823011F4C3
:10012000C4980895813009F4C0980895C29A92E065
:100130009A95F1F700C0823059F4C49882E08A950C
:10014000F1F700C0C49A92E09A95F1F700C00895C3
:100150008130E9F7C09882E08A95F1F700C0C09A33
:10016000F2CF482FC398BB9AC198B99852E05A95DC
:10017000F1F700C0C29828E030E090E880E0880FF6
:10018000542F5923A1F0C39AC29A52E05A95F1F71D
:1001900000C0B1998160C29896952150310979F7D4
:1001A000C398C19892E09A95F1F700C00895C3985A
:1001B000EBCF1F93CF93DF93182FC091DC008130DA
:1001C00069F0C091D600D091D700823041F0C09143
:1001D000D800D091D900833011F0C0E0D0E081E0A8
:1001E00098DF812FBEDF182F8D2FBBDFD82F8C2FEC
:1001F000B8DFC82F81E09ADF143049F4C093620061
:10020000D0936300812FDF91CF911F910895153016
:10021000C9F7C0936000D0936100F4CFCF93C82F8B
:1002200082E077DF88E88C0F56DF82E07FDF81E0B5
:10023000CF9108954F925F926F927F929F92AF926B
:10024000BF92CF92DF92EF92FF920F931F93CF93C3
:10025000DF93CDB7DEB768970FB6F894DEBF0FBE59
:10026000CDBF162F072FD82EC92E942E82E051DF36
:1002700080E431DF82E05ADF7E0181E1E80EF11C8B
:1002800088E0D7011D928A95E9F757018AE0482E48
:10029000512C612C712C8A2D8E19891508F447C0B8
:1002A000FE01319680E1DF011D928A95E9F78F0109
:1002B0006E01B9E0CB0ED11C91E08191DE0159961F
:1002C000880F2E91292309F08160AE15BF05C1F773
:1002D000DF0111978C93990FEC15FD0571F782E002
:1002E00018DF80ECF8DEF80181918F01F4DED8018F
:1002F00017968C91F0DE0C151D05A9F782E016DF2C
:1003000081E068960FB6F894DEBF0FBECDBFDF91D7
:10031000CF911F910F91FF90EF90DF90CF90BF9002
:10032000AF909F907F906F905F904F900895612F56
:10033000702F8D2D9C2DA3019201BED462587F4F4A
:10034000FB018081D5018D935D01122F032FD42EE7
:10035000C52EA1CFCF92DF92EF92FF920F931F9302
:10036000CF93DF9300D000D0CDB7DEB719821A82C9
:100370001B821C8282E0CDDE82E4ADDE8E010F5F47
:100380001F4F6E0185E0C80ED11C78018EDEF7018B
:1003900081937F01EC15FD05C9F782E0C7DE92E08D
:1003A00080E0F80121918F0126FD1CC022FF12C0C0
:1003B0008FEF890F9E5F9A30A1F70F900F900F90EB
:1003C0000F90DF91CF911F910F91FF90EF90DF90F1
:1003D000CF90089525FF02C088E0EBCF21FFEACF40
:1003E00087E0E7CF892FE6CFEF92FF920F931F931D
:1003F000CF93DF93CDB7DEB768970FB6F894DEBF23
:100400000FBECDBF8C0182E084DE80E464DE82E03A
:100410008DDE9E012F5E3F4F88E0D9011D928A95A7
:10042000E9F7D80187E0ED91E1113EC0FE01319678
:1004300080E1DF011D928A95E9F78F017E01B9E025
:10044000EB0EF11C91E08191DE015996880F4E91DF
:10045000492309F08160A217B307C1F7DF011197A3
:100460008C93990FEE15FF0571F782E052DE80EC58
:1004700032DEF80181918F012EDED80117968C9122
:100480002ADE0E151F05A9F782E050DE81E068968E
:100490000FB6F894DEBF0FBECDBFDF91CF911F9195
:1004A0000F91FF90EF9008959FE99E0F9A3150F4BD
:1004B0000E2E000CFF0BED5FFF4F9081F901E80F4E
:1004C000F11D9083882309F4AECF8150ACCF809189
:1004D000DE00811105C01092DF0089E990E084CF31
:1004E000843079F481E08093DF0080EA90E07CDF63
:1004F0002FEF83ED90E3215080409040E1F700C062
:10050000000008954F925F926F927F928F929F9218
:10051000AF92BF92CF92DF92EF92FF92CF93DF9391
:1005200000D000D000D0CDB7DEB72B013C0129832D
:100530003A834B835C838091CD008111B1C080915F
:10054000DC0090E0B0E0A0E08093D8009093D90068
:10055000A093DA00B093DB002091D2002E831D829D
:1005600061E070E080E090E04E815D814513A7C0BE
:100570002091DE00C090D800D090D900E090DA0041
:10058000F090DB00203109F0A3C0C616D706E806BC
:10059000F90660F0C61AD70AE80AF90AC092D8002C
:1005A000D092D900E092DA00F092DB00C090D8003F
:1005B000D090D900E090DA00F090DB001D8231E0AD
:1005C0003E838AE0882E912CA12CB12C4D814F5F67
:1005D0004D83C814D904EA04FB0470F4C501B401C6
:1005E0002AE030E040E050E067D3C216D306E406CC
:1005F000F50610F05D815E832AE030E040E050E0D7
:10060000C501B40140D34B015C018D818830F1F606
:1006100087E004DE6091D8007091D9008091DA0003
:100620009091DB004E8106DE9FE728E331E0915098
:1006300020403040E1F700C000008091D800909148
:10064000D900A091DA00B091DB0084159505A605CC
:10065000B70508F467C029813A814B815C8128176E
:1006600039074A075B0708F45DC02091CD002111CE
:100670004AC08093DC0026960FB6F894DEBF0FBE0A
:10068000CDBFDF91CF91FF90EF90DF90CF90BF90E3
:10069000AF909F908F907F906F905F904F90089554
:1006A000813029F48091D6009091D7004BCF8230D1
:1006B00009F052CF8091D4009091D50043CF2AE029
:1006C00030E040E050E0DFD23D813F5F3D834CCFE2
:1006D0002C3009F06BCFDC01CB018C0D9D1DAE1DC4
:1006E000BF1D811521EE920725EFA20725E0B20775
:1006F00008F05CCF8093D8009093D900A093DA00E3
:10070000B093DB0053CF213029F49093D70080932E
:10071000D600B1CF223009F0AECF9093D5008093B0
:10072000D400A9CF80E07ADD88EA90E05DDE3FEF7B
:1007300044E35CE0315040405040E1F700C000002D
:100740009ACF1092CD0081E090E09093D1008093F9
:10075000D00080E290E09093CF008093CE0080E0C4
:100760005DDD6091DC0070E090E080E042E062DD01
:100770008091DE00811104C081E08093DF00089544
:10078000843081F482E08093DF008CEA90E02CDEFC
:100790002FEF83ED90E3215080409040E1F700C0BF
:1007A000000008958F30C9F486E08093DF00109236
:1007B000D8001092D9001092DA001092DB0081E08C
:1007C0008093D30084EA90E00FDE2FEF84E39CE077
:1007D000215080409040E1F7E2CF883079F4809159
:1007E000DD0081111CC08091D200883020F48F5F21
:1007F0008093D20008951092D20008958C3011F0A9
:10080000803169F42091CE003091CF0050E040E07B
:100810006091D0007091D10090E080E073CE089597
:10082000CF93C1E0C093CD001092D1001092D000C0
:100830008FEF9FE09093CF008093CE0080E0EEDCBE
:100840006091D6007091D70090E080E044E0F2DC47
:100850008091DE00811105C082E08093DF00CF919E
:100860000895843081F483E08093DF0084EB90E08E
:10087000BBDD2FEF83ED90E3215080409040E1F706
:1008800000C00000ECCF8F30C1F486E08093DF0021
:100890001092D8001092D9001092DA001092DB006A
:1008A000C093D30084EA90E09FDD2FEF84E39CE0C7
:1008B000215080409040E1F7E3CF883079F4809177
:1008C000DD008111CCCF8091D200883020F48F5F81
:1008D0008093D200C4CF1092D200C1CF8C3019F0D7
:1008E000803109F0BCCF2091CE003091CF0050E094
:1008F00040E06091D0007091D10090E080E0CF9115
:1009000001CE82E08093CD001092D1001092D000F1
:100910008FEF93E09093CF008093CE0080E07EDC59
:100920006091D4007091D50090E080E044E082DCDA
:100930008091DE00811104C083E08093DF00089580
:10094000843079F48093DF008BEB90E04DDD2FEF66
:1009500083ED90E3215080409040E1F700C000001B
:1009600008958F30C9F486E08093DF001092D8009C
:100970001092D9001092DA001092DB0081E080938F
:10098000D30084EA90E030DD2FEF84E39CE0215037
:1009900080409040E1F7E2CF883079F48091DD002B
:1009A00081111CC08091D200883020F48F5F809329
:1009B000D20008951092D20008958C3011F0803149
:1009C00069F42091CE003091CF0050E040E060917A
:1009D000D0007091D10090E080E094CD089580E047
:1009E0001DDC609162007091630090E080E044E063
:1009F00021DC8091DE00811104C084E08093DF005F
:100A00000895843079F485E08093DF0084EC90E0F1
:100A1000EBDC2FEF83ED90E3215080409040E1F735
:100A200000C00000089580E0F9DB609160007091E3
:100A3000610090E080E044E0FDDB8091DE00811108
:100A400004C085E08093DF000895843079F481E06C
:100A50008093DF0080EA90E0C7DC2FEF83ED90E326
:100A6000215080409040E1F700C000000895CF93EE
:100A700087E0D4DB8091DE00811105C086E08093A1
:100A8000DF00CF9108958F3009F049C09091DD00CB
:100A9000911145C08091D8009091D900A091DA00C1
:100AA000B091DB004091D0005091D10070E060E047
:100AB00084179507A607B70718F14091CE0050910B
:100AC000CF0070E060E0481759076A077B07C0F065
:100AD0002091CD00211106C08093DC008091CD00D3
:100AE0008F5FCDCF213029F49093D7008093D6002B
:100AF000F5CF223099F79093D5008093D400EECFB4
:100B000080E08CDB88EA90E06FDC2FEF84E39CE0F0
:100B1000215080409040E1F700C00000DFCFE82F77
:100B2000F0E0E857FF4FC081CF3F99F18091DD00A1
:100B3000882319F08F3009F0A4CF2AE030E040E09C
:100B400050E06091D8007091D9008091DA009091C6
:100B5000DB0099D06C0F711D811D911D6093D80031
:100B60007093D9008093DA009093DB0087E056DB26
:100B70006091D8007091D9008091DA009091DB00EB
:100B80004091D30057DB8091D3008F5F8093D300D7
:100B900078CF8E3009F075CF8091DD00811171CF53
:100BA0006091D8007091D9008091DA009091DB00BB
:100BB0002AE030E040E050E07FD02093D80030932E
:100BC000D9004093DA005093DB008091D30081502C
:100BD0008093D30087E022DB4091D30041506091A5
:100BE000D8007091D9008091DA009091DB00CF910C
:100BF00021CB82E039DA2FDA8FE19EE40197F1F719
:100C000000C0000080E00ADB8091DE008093DD0000
:100C1000A1DB8093DE008091DF00811119C057DCD9
:100C20009FE728E381E0915020408040E1F700C039
:100C300000008091DF00BDDA8093CC009FE728E3BD
:100C400081E0915020408040E1F700C00000DCCFFF
:100C5000813011F476DDE4CF823011F4E1DDE0CFB4
:100C6000833011F44EDEDCCF843011F4B8DED8CFFF
:100C7000853011F4D8DED4CF863011F4F8DED0CF31
:100C80001092DF00CDCFEE27FF27AA27BB2708C091
:100C9000A20FB31FE41FF51F220F331F441F551F60
:100CA000969587957795679598F37040A9F7009783
:100CB00099F7BD01CF010895A1E21A2EAA1BBB1B13
:100CC000FD010DC0AA1FBB1FEE1FFF1FA217B30718
:100CD000E407F50720F0A21BB30BE40BF50B661F2E
:100CE000771F881F991F1A9469F7609570958095F2
:100CF00090959B01AC01BD01CF010895F894FFCF01
:100D00000008FF01777C395E79713D74301E7538BB
:100D100015373F7367336D783E2E2A76BE4B3F06FC
:100D20005B4F666D7D077F6FFF070809FF040506AF
:100D3000FF010203FF00FFFFFF677073726376001D
:100D400073766964736574006572720066726571AA
:100D50007365740076636F7365740076636F766194
:0C0D60006C7565006966667265710000C4
:00000001FF
