:100000000EC020C01FC01EC01DC01CC01BC01AC017
:1000100019C018C017C016C015C014C013C01124D1
:100020001FBECFE5D2E0DEBFCDBF10E0A0E6B0E05E
:10003000E8E5F1E002C005900D92AA36B107D9F7C4
:1000400075D088C0DDCFC098B89AC198B99AC49AC3
:10005000BC9A0895C098B898C198B99AC49ABC9AA5
:100060000895C098B89898E080E0880F00C000C05C
:10007000C19AB0998160C1989150B9F7C198C09860
:1000800000C000C00895C098B89A00C000C028E021
:1000900030E090E8482F492371F0C09AC19A00C01F
:1000A00000C0C198969521503109A1F7C198C09818
:1000B00000C000C00895C098F1CFC49A00C000C02D
:1000C000C4980895C19800C000C0C49800C000C082
:1000D000C49A00C000C00895CF93DF93EC01EDDF18
:1000E000C0DF8A83BEDF8983BCDF8883EBDF89EFD3
:1000F00090E00197F1F700C0000081E0DF91CF911F
:100100000895CF93DF93EC01D8DF8A81BCDF89812A
:10011000BADF8881B8DFD6DF89EF90E00197F1F789
:1001200000C0000081E0DF91CF910895BA9AC29893
:100130008ADF87EA91E60197F1F700C0000086E6C2
:1001400090E0DFDF83E690E0DCDF80E690E0D9DF5F
:08015000C29AFFCFF894FFCF23
:0A01580015F9298C0A7093FE5D0072
:00000001FF
